{
    "_format": "hh-sol-artifact-1",
    "contractName": "Locker",
    "sourceName": "contracts/Locker.sol",
    "abi": [
        {
            "inputs": [],
            "stateMutability": "nonpayable",
            "type": "constructor"
        },
        {
            "inputs": [
                {
                    "internalType": "address",
                    "name": "_tokenContract",
                    "type": "address"
                },
                {
                    "internalType": "uint64",
                    "name": "_tokenId",
                    "type": "uint64"
                },
                {
                    "internalType": "string",
                    "name": "_destinationAddress",
                    "type": "string"
                }
            ],
            "name": "lock",
            "outputs": [],
            "stateMutability": "nonpayable",
            "type": "function"
        },
        {
            "inputs": [
                {
                    "internalType": "address",
                    "name": "",
                    "type": "address"
                },
                {
                    "internalType": "uint64",
                    "name": "",
                    "type": "uint64"
                },
                {
                    "internalType": "uint256",
                    "name": "",
                    "type": "uint256"
                }
            ],
            "name": "lockedTokens",
            "outputs": [
                {
                    "internalType": "string",
                    "name": "",
                    "type": "string"
                }
            ],
            "stateMutability": "view",
            "type": "function"
        },
        {
            "inputs": [
                {
                    "internalType": "address",
                    "name": "_tokenContract",
                    "type": "address"
                },
                {
                    "internalType": "uint64",
                    "name": "_tokenId",
                    "type": "uint64"
                },
                {
                    "internalType": "uint256",
                    "name": "_tokenLockTimestamp",
                    "type": "uint256"
                },
                {
                    "internalType": "address[]",
                    "name": "_signers",
                    "type": "address[]"
                },
                {
                    "internalType": "bytes[]",
                    "name": "_signatures",
                    "type": "bytes[]"
                }
            ],
            "name": "withdraw",
            "outputs": [],
            "stateMutability": "nonpayable",
            "type": "function"
        }
    ],
    "bytecode": "0x608060405234801561001057600080fd5b506117f0806100206000396000f3fe608060405234801561001057600080fd5b50600436106100415760003560e01c8063134b0c4f1461004657806357703f9714610076578063f1c1a99014610092575b600080fd5b610060600480360381019061005b9190610ce3565b6100ae565b60405161006d9190611173565b60405180910390f35b610090600480360381019061008b9190610d36565b610168565b005b6100ac60048036038101906100a79190610c74565b61043f565b005b6000602052826000526040600020602052816000526040600020602052806000526040600020600092509250505080546100e79061142b565b80601f01602080910402602001604051908101604052809291908181526020018280546101139061142b565b80156101605780601f1061013557610100808354040283529160200191610160565b820191906000526020600020905b81548152906001019060200180831161014357829003601f168201915b505050505081565b6040516020016101779061108a565b604051602081830303815290604052805190602001206000808773ffffffffffffffffffffffffffffffffffffffff1673ffffffffffffffffffffffffffffffffffffffff16815260200190815260200160002060008667ffffffffffffffff1667ffffffffffffffff1681526020019081526020016000206000858152602001908152602001600020604051602001610211919061104d565b604051602081830303815290604052805190602001201415610268576040517f08c379a000000000000000000000000000000000000000000000000000000000815260040161025f90611215565b60405180910390fd5b600061029f8686863360405160200161028494939291906110d6565b604051602081830303815290604052805190602001206104d9565b905060005b82518167ffffffffffffffff161015610392576102ee838267ffffffffffffffff16815181106102d7576102d6611556565b5b60200260200101518361050990919063ffffffff16565b73ffffffffffffffffffffffffffffffffffffffff16848267ffffffffffffffff168151811061032157610320611556565b5b602002602001015173ffffffffffffffffffffffffffffffffffffffff161461037f576040517f08c379a000000000000000000000000000000000000000000000000000000000815260040161037690611235565b60405180910390fd5b808061038a9061148e565b9150506102a4565b50604051806020016040528060008152506000808873ffffffffffffffffffffffffffffffffffffffff1673ffffffffffffffffffffffffffffffffffffffff16815260200190815260200160002060008767ffffffffffffffff1667ffffffffffffffff1681526020019081526020016000206000868152602001908152602001600020908051906020019061042a929190610958565b5061043786863033610530565b505050505050565b61044b83833330610530565b806000808573ffffffffffffffffffffffffffffffffffffffff1673ffffffffffffffffffffffffffffffffffffffff16815260200190815260200160002060008467ffffffffffffffff1667ffffffffffffffff168152602001908152602001600020600042815260200190815260200160002090805190602001906104d3929190610958565b50505050565b6000816040516020016104ec9190611064565b604051602081830303815290604052805190602001209050919050565b600080600061051885856105a5565b9150915061052581610628565b819250505092915050565b8373ffffffffffffffffffffffffffffffffffffffff166323b872dd8383866040518463ffffffff1660e01b815260040161056d9392919061109f565b600060405180830381600087803b15801561058757600080fd5b505af115801561059b573d6000803e3d6000fd5b5050505050505050565b6000806041835114156105e75760008060006020860151925060408601519150606086015160001a90506105db878285856107fd565b94509450505050610621565b60408351141561061857600080602085015191506040850151905061060d86838361090a565b935093505050610621565b60006002915091505b9250929050565b6000600481111561063c5761063b6114f8565b5b81600481111561064f5761064e6114f8565b5b141561065a576107fa565b6001600481111561066e5761066d6114f8565b5b816004811115610681576106806114f8565b5b14156106c2576040517f08c379a00000000000000000000000000000000000000000000000000000000081526004016106b990611195565b60405180910390fd5b600260048111156106d6576106d56114f8565b5b8160048111156106e9576106e86114f8565b5b141561072a576040517f08c379a0000000000000000000000000000000000000000000000000000000008152600401610721906111b5565b60405180910390fd5b6003600481111561073e5761073d6114f8565b5b816004811115610751576107506114f8565b5b1415610792576040517f08c379a0000000000000000000000000000000000000000000000000000000008152600401610789906111d5565b60405180910390fd5b6004808111156107a5576107a46114f8565b5b8160048111156107b8576107b76114f8565b5b14156107f9576040517f08c379a00000000000000000000000000000000000000000000000000000000081526004016107f0906111f5565b60405180910390fd5b5b50565b6000807f7fffffffffffffffffffffffffffffff5d576e7357a4501ddfe92f46681b20a08360001c1115610838576000600391509150610901565b601b8560ff16141580156108505750601c8560ff1614155b15610862576000600491509150610901565b600060018787878760405160008152602001604052604051610887949392919061112e565b6020604051602081039080840390855afa1580156108a9573d6000803e3d6000fd5b505050602060405103519050600073ffffffffffffffffffffffffffffffffffffffff168173ffffffffffffffffffffffffffffffffffffffff1614156108f857600060019250925050610901565b80600092509250505b94509492505050565b6000806000807f7fffffffffffffffffffffffffffffffffffffffffffffffffffffffffffffff85169150601b8560ff1c01905061094a878288856107fd565b935093505050935093915050565b8280546109649061142b565b90600052602060002090601f01602090048101928261098657600085556109cd565b82601f1061099f57805160ff19168380011785556109cd565b828001600101855582156109cd579182015b828111156109cc5782518255916020019190600101906109b1565b5b5090506109da91906109de565b5090565b5b808211156109f75760008160009055506001016109df565b5090565b6000610a0e610a098461127a565b611255565b90508083825260208201905082856020860282011115610a3157610a306115b9565b5b60005b85811015610a615781610a478882610b7d565b845260208401935060208301925050600181019050610a34565b5050509392505050565b6000610a7e610a79846112a6565b611255565b90508083825260208201905082856020860282011115610aa157610aa06115b9565b5b60005b85811015610aef57813567ffffffffffffffff811115610ac757610ac66115b4565b5b808601610ad48982610bee565b85526020850194506020840193505050600181019050610aa4565b5050509392505050565b6000610b0c610b07846112d2565b611255565b905082815260208101848484011115610b2857610b276115be565b5b610b338482856113e9565b509392505050565b6000610b4e610b4984611303565b611255565b905082815260208101848484011115610b6a57610b696115be565b5b610b758482856113e9565b509392505050565b600081359050610b8c81611775565b92915050565b600082601f830112610ba757610ba66115b4565b5b8135610bb78482602086016109fb565b91505092915050565b600082601f830112610bd557610bd46115b4565b5b8135610be5848260208601610a6b565b91505092915050565b600082601f830112610c0357610c026115b4565b5b8135610c13848260208601610af9565b91505092915050565b600082601f830112610c3157610c306115b4565b5b8135610c41848260208601610b3b565b91505092915050565b600081359050610c598161178c565b92915050565b600081359050610c6e816117a3565b92915050565b600080600060608486031215610c8d57610c8c6115c8565b5b6000610c9b86828701610b7d565b9350506020610cac86828701610c5f565b925050604084013567ffffffffffffffff811115610ccd57610ccc6115c3565b5b610cd986828701610c1c565b9150509250925092565b600080600060608486031215610cfc57610cfb6115c8565b5b6000610d0a86828701610b7d565b9350506020610d1b86828701610c5f565b9250506040610d2c86828701610c4a565b9150509250925092565b600080600080600060a08688031215610d5257610d516115c8565b5b6000610d6088828901610b7d565b9550506020610d7188828901610c5f565b9450506040610d8288828901610c4a565b935050606086013567ffffffffffffffff811115610da357610da26115c3565b5b610daf88828901610b92565b925050608086013567ffffffffffffffff811115610dd057610dcf6115c3565b5b610ddc88828901610bc0565b9150509295509295909350565b610df281611370565b82525050565b610e0181611382565b82525050565b610e18610e1382611382565b6114bf565b82525050565b6000610e2982611349565b610e338185611354565b9350610e438185602086016113f8565b610e4c816115cd565b840191505092915050565b60008154610e648161142b565b610e6e8186611365565b94506001821660008114610e895760018114610e9a57610ecd565b60ff19831686528186019350610ecd565b610ea385611334565b60005b83811015610ec557815481890152600182019150602081019050610ea6565b838801955050505b50505092915050565b6000610ee3601883611354565b9150610eee826115de565b602082019050919050565b6000610f06601f83611354565b9150610f1182611607565b602082019050919050565b6000610f29601c83611365565b9150610f3482611630565b601c82019050919050565b6000610f4c600683611354565b9150610f5782611659565b602082019050919050565b6000610f6f602283611354565b9150610f7a82611682565b604082019050919050565b6000610f92602283611354565b9150610f9d826116d1565b604082019050919050565b6000610fb5600f83611354565b9150610fc082611720565b602082019050919050565b6000610fd8600083611365565b9150610fe382611749565b600082019050919050565b6000610ffb600f83611354565b91506110068261174c565b602082019050919050565b61101a816113ac565b82525050565b611029816113d7565b82525050565b611038816113b6565b82525050565b611047816113ca565b82525050565b60006110598284610e57565b915081905092915050565b600061106f82610f1c565b915061107b8284610e07565b60208201915081905092915050565b600061109582610fcb565b9150819050919050565b60006060820190506110b46000830186610de9565b6110c16020830185610de9565b6110ce6040830184611020565b949350505050565b600060a0820190506110eb6000830187610de9565b6110f8602083018661102f565b6111056040830185611011565b6111126060830184610de9565b818103608083015261112381610f3f565b905095945050505050565b60006080820190506111436000830187610df8565b611150602083018661103e565b61115d6040830185610df8565b61116a6060830184610df8565b95945050505050565b6000602082019050818103600083015261118d8184610e1e565b905092915050565b600060208201905081810360008301526111ae81610ed6565b9050919050565b600060208201905081810360008301526111ce81610ef9565b9050919050565b600060208201905081810360008301526111ee81610f62565b9050919050565b6000602082019050818103600083015261120e81610f85565b9050919050565b6000602082019050818103600083015261122e81610fa8565b9050919050565b6000602082019050818103600083015261124e81610fee565b9050919050565b600061125f611270565b905061126b828261145d565b919050565b6000604051905090565b600067ffffffffffffffff82111561129557611294611585565b5b602082029050602081019050919050565b600067ffffffffffffffff8211156112c1576112c0611585565b5b602082029050602081019050919050565b600067ffffffffffffffff8211156112ed576112ec611585565b5b6112f6826115cd565b9050602081019050919050565b600067ffffffffffffffff82111561131e5761131d611585565b5b611327826115cd565b9050602081019050919050565b60008190508160005260206000209050919050565b600081519050919050565b600082825260208201905092915050565b600081905092915050565b600061137b8261138c565b9050919050565b6000819050919050565b600073ffffffffffffffffffffffffffffffffffffffff82169050919050565b6000819050919050565b600067ffffffffffffffff82169050919050565b600060ff82169050919050565b60006113e2826113b6565b9050919050565b82818337600083830152505050565b60005b838110156114165780820151818401526020810190506113fb565b83811115611425576000848401525b50505050565b6000600282049050600182168061144357607f821691505b6020821081141561145757611456611527565b5b50919050565b611466826115cd565b810181811067ffffffffffffffff8211171561148557611484611585565b5b80604052505050565b6000611499826113b6565b915067ffffffffffffffff8214156114b4576114b36114c9565b5b600182019050919050565b6000819050919050565b7f4e487b7100000000000000000000000000000000000000000000000000000000600052601160045260246000fd5b7f4e487b7100000000000000000000000000000000000000000000000000000000600052602160045260246000fd5b7f4e487b7100000000000000000000000000000000000000000000000000000000600052602260045260246000fd5b7f4e487b7100000000000000000000000000000000000000000000000000000000600052603260045260246000fd5b7f4e487b7100000000000000000000000000000000000000000000000000000000600052604160045260246000fd5b600080fd5b600080fd5b600080fd5b600080fd5b600080fd5b6000601f19601f8301169050919050565b7f45434453413a20696e76616c6964207369676e61747572650000000000000000600082015250565b7f45434453413a20696e76616c6964207369676e6174757265206c656e67746800600082015250565b7f19457468657265756d205369676e6564204d6573736167653a0a333200000000600082015250565b7f6275726e65640000000000000000000000000000000000000000000000000000600082015250565b7f45434453413a20696e76616c6964207369676e6174757265202773272076616c60008201527f7565000000000000000000000000000000000000000000000000000000000000602082015250565b7f45434453413a20696e76616c6964207369676e6174757265202776272076616c60008201527f7565000000000000000000000000000000000000000000000000000000000000602082015250565b7f746f6b656e206e6f7420666f756e640000000000000000000000000000000000600082015250565b50565b7f77726f6e67207369676e61747572650000000000000000000000000000000000600082015250565b61177e81611370565b811461178957600080fd5b50565b611795816113ac565b81146117a057600080fd5b50565b6117ac816113b6565b81146117b757600080fd5b5056fea264697066735822122028e64a146dcb432040fc89f2da88474e40854ef67e409027006ac5f30707511164736f6c63430008070033",
    "linkReferences": {},
    "deployedLinkReferences": {}
}