{
    "_format": "hh-sol-artifact-1",
    "contractName": "Wrapper",
    "sourceName": "contracts/Wrapper.sol",
    "abi": [
        {
            "inputs": [],
            "stateMutability": "nonpayable",
            "type": "constructor"
        },
        {
            "anonymous": false,
            "inputs": [
                {
                    "indexed": true,
                    "internalType": "address",
                    "name": "owner",
                    "type": "address"
                },
                {
                    "indexed": true,
                    "internalType": "address",
                    "name": "approved",
                    "type": "address"
                },
                {
                    "indexed": true,
                    "internalType": "uint256",
                    "name": "tokenId",
                    "type": "uint256"
                }
            ],
            "name": "Approval",
            "type": "event"
        },
        {
            "anonymous": false,
            "inputs": [
                {
                    "indexed": true,
                    "internalType": "address",
                    "name": "owner",
                    "type": "address"
                },
                {
                    "indexed": true,
                    "internalType": "address",
                    "name": "operator",
                    "type": "address"
                },
                {
                    "indexed": false,
                    "internalType": "bool",
                    "name": "approved",
                    "type": "bool"
                }
            ],
            "name": "ApprovalForAll",
            "type": "event"
        },
        {
            "anonymous": false,
            "inputs": [
                {
                    "indexed": true,
                    "internalType": "address",
                    "name": "from",
                    "type": "address"
                },
                {
                    "indexed": true,
                    "internalType": "address",
                    "name": "to",
                    "type": "address"
                },
                {
                    "indexed": true,
                    "internalType": "uint256",
                    "name": "tokenId",
                    "type": "uint256"
                }
            ],
            "name": "Transfer",
            "type": "event"
        },
        {
            "inputs": [
                {
                    "internalType": "address",
                    "name": "to",
                    "type": "address"
                },
                {
                    "internalType": "uint256",
                    "name": "tokenId",
                    "type": "uint256"
                }
            ],
            "name": "approve",
            "outputs": [],
            "stateMutability": "nonpayable",
            "type": "function"
        },
        {
            "inputs": [
                {
                    "internalType": "address",
                    "name": "owner",
                    "type": "address"
                }
            ],
            "name": "balanceOf",
            "outputs": [
                {
                    "internalType": "uint256",
                    "name": "",
                    "type": "uint256"
                }
            ],
            "stateMutability": "view",
            "type": "function"
        },
        {
            "inputs": [
                {
                    "internalType": "string",
                    "name": "_tokenContract",
                    "type": "string"
                },
                {
                    "internalType": "uint64",
                    "name": "_tokenId",
                    "type": "uint64"
                },
                {
                    "internalType": "uint256",
                    "name": "_tokenLockTimestamp",
                    "type": "uint256"
                },
                {
                    "internalType": "string",
                    "name": "_destinationAddress",
                    "type": "string"
                }
            ],
            "name": "burn",
            "outputs": [],
            "stateMutability": "nonpayable",
            "type": "function"
        },
        {
            "inputs": [
                {
                    "internalType": "string",
                    "name": "",
                    "type": "string"
                },
                {
                    "internalType": "uint64",
                    "name": "",
                    "type": "uint64"
                },
                {
                    "internalType": "uint256",
                    "name": "",
                    "type": "uint256"
                }
            ],
            "name": "burnedTokens",
            "outputs": [
                {
                    "internalType": "string",
                    "name": "",
                    "type": "string"
                }
            ],
            "stateMutability": "view",
            "type": "function"
        },
        {
            "inputs": [
                {
                    "internalType": "uint256",
                    "name": "tokenId",
                    "type": "uint256"
                }
            ],
            "name": "getApproved",
            "outputs": [
                {
                    "internalType": "address",
                    "name": "",
                    "type": "address"
                }
            ],
            "stateMutability": "view",
            "type": "function"
        },
        {
            "inputs": [
                {
                    "internalType": "address",
                    "name": "owner",
                    "type": "address"
                },
                {
                    "internalType": "address",
                    "name": "operator",
                    "type": "address"
                }
            ],
            "name": "isApprovedForAll",
            "outputs": [
                {
                    "internalType": "bool",
                    "name": "",
                    "type": "bool"
                }
            ],
            "stateMutability": "view",
            "type": "function"
        },
        {
            "inputs": [],
            "name": "name",
            "outputs": [
                {
                    "internalType": "string",
                    "name": "",
                    "type": "string"
                }
            ],
            "stateMutability": "view",
            "type": "function"
        },
        {
            "inputs": [
                {
                    "internalType": "uint256",
                    "name": "tokenId",
                    "type": "uint256"
                }
            ],
            "name": "ownerOf",
            "outputs": [
                {
                    "internalType": "address",
                    "name": "",
                    "type": "address"
                }
            ],
            "stateMutability": "view",
            "type": "function"
        },
        {
            "inputs": [
                {
                    "internalType": "address",
                    "name": "from",
                    "type": "address"
                },
                {
                    "internalType": "address",
                    "name": "to",
                    "type": "address"
                },
                {
                    "internalType": "uint256",
                    "name": "tokenId",
                    "type": "uint256"
                }
            ],
            "name": "safeTransferFrom",
            "outputs": [],
            "stateMutability": "nonpayable",
            "type": "function"
        },
        {
            "inputs": [
                {
                    "internalType": "address",
                    "name": "from",
                    "type": "address"
                },
                {
                    "internalType": "address",
                    "name": "to",
                    "type": "address"
                },
                {
                    "internalType": "uint256",
                    "name": "tokenId",
                    "type": "uint256"
                },
                {
                    "internalType": "bytes",
                    "name": "_data",
                    "type": "bytes"
                }
            ],
            "name": "safeTransferFrom",
            "outputs": [],
            "stateMutability": "nonpayable",
            "type": "function"
        },
        {
            "inputs": [
                {
                    "internalType": "address",
                    "name": "operator",
                    "type": "address"
                },
                {
                    "internalType": "bool",
                    "name": "approved",
                    "type": "bool"
                }
            ],
            "name": "setApprovalForAll",
            "outputs": [],
            "stateMutability": "nonpayable",
            "type": "function"
        },
        {
            "inputs": [
                {
                    "internalType": "bytes4",
                    "name": "interfaceId",
                    "type": "bytes4"
                }
            ],
            "name": "supportsInterface",
            "outputs": [
                {
                    "internalType": "bool",
                    "name": "",
                    "type": "bool"
                }
            ],
            "stateMutability": "view",
            "type": "function"
        },
        {
            "inputs": [],
            "name": "symbol",
            "outputs": [
                {
                    "internalType": "string",
                    "name": "",
                    "type": "string"
                }
            ],
            "stateMutability": "view",
            "type": "function"
        },
        {
            "inputs": [
                {
                    "internalType": "uint256",
                    "name": "tokenId",
                    "type": "uint256"
                }
            ],
            "name": "tokenURI",
            "outputs": [
                {
                    "internalType": "string",
                    "name": "",
                    "type": "string"
                }
            ],
            "stateMutability": "view",
            "type": "function"
        },
        {
            "inputs": [],
            "name": "totalTokens",
            "outputs": [
                {
                    "internalType": "uint64",
                    "name": "",
                    "type": "uint64"
                }
            ],
            "stateMutability": "view",
            "type": "function"
        },
        {
            "inputs": [
                {
                    "internalType": "address",
                    "name": "from",
                    "type": "address"
                },
                {
                    "internalType": "address",
                    "name": "to",
                    "type": "address"
                },
                {
                    "internalType": "uint256",
                    "name": "tokenId",
                    "type": "uint256"
                }
            ],
            "name": "transferFrom",
            "outputs": [],
            "stateMutability": "nonpayable",
            "type": "function"
        },
        {
            "inputs": [
                {
                    "internalType": "string",
                    "name": "_tokenContract",
                    "type": "string"
                },
                {
                    "internalType": "uint64",
                    "name": "_tokenId",
                    "type": "uint64"
                },
                {
                    "internalType": "uint256",
                    "name": "_tokenLockTimestamp",
                    "type": "uint256"
                },
                {
                    "internalType": "string",
                    "name": "_tokenMetadata",
                    "type": "string"
                },
                {
                    "internalType": "address[]",
                    "name": "_signers",
                    "type": "address[]"
                },
                {
                    "internalType": "bytes[]",
                    "name": "_signatures",
                    "type": "bytes[]"
                }
            ],
            "name": "wrap",
            "outputs": [],
            "stateMutability": "nonpayable",
            "type": "function"
        },
        {
            "inputs": [
                {
                    "internalType": "uint64",
                    "name": "",
                    "type": "uint64"
                }
            ],
            "name": "wrappedId",
            "outputs": [
                {
                    "internalType": "string",
                    "name": "tokenContract",
                    "type": "string"
                },
                {
                    "internalType": "uint64",
                    "name": "tokenId",
                    "type": "uint64"
                },
                {
                    "internalType": "uint256",
                    "name": "tokenLockTimestamp",
                    "type": "uint256"
                }
            ],
            "stateMutability": "view",
            "type": "function"
        },
        {
            "inputs": [
                {
                    "internalType": "string",
                    "name": "",
                    "type": "string"
                },
                {
                    "internalType": "uint64",
                    "name": "",
                    "type": "uint64"
                }
            ],
            "name": "wrappedTokens",
            "outputs": [
                {
                    "internalType": "uint64",
                    "name": "",
                    "type": "uint64"
                }
            ],
            "stateMutability": "view",
            "type": "function"
        }
    ],
    "bytecode": "0x60806040526001600760006101000a81548167ffffffffffffffff021916908367ffffffffffffffff1602179055503480156200003b57600080fd5b506040518060400160405280600e81526020017f486173686920457468657265756d0000000000000000000000000000000000008152506040518060400160405280600481526020017f684e4654000000000000000000000000000000000000000000000000000000008152508160009080519060200190620000c0929190620000e2565b508060019080519060200190620000d9929190620000e2565b505050620001f7565b828054620000f09062000192565b90600052602060002090601f01602090048101928262000114576000855562000160565b82601f106200012f57805160ff191683800117855562000160565b8280016001018555821562000160579182015b828111156200015f57825182559160200191906001019062000142565b5b5090506200016f919062000173565b5090565b5b808211156200018e57600081600090555060010162000174565b5090565b60006002820490506001821680620001ab57607f821691505b60208210811415620001c257620001c1620001c8565b5b50919050565b7f4e487b7100000000000000000000000000000000000000000000000000000000600052602260045260246000fd5b61453880620002076000396000f3fe608060405234801561001057600080fd5b50600436106101215760003560e01c80637e1c0c09116100ad578063b88d4fde11610071578063b88d4fde1461032e578063c87b56dd1461034a578063d36d8a2d1461037a578063da4054be14610396578063e985e9c5146103c657610121565b80637e1c0c09146102745780638e2382051461029257806395d89b41146102c4578063a22cb465146102e2578063a63ab4c0146102fe57610121565b806323b872dd116100f457806323b872dd146101c057806342842e0e146101dc5780636352211e146101f85780636a5636061461022857806370a082311461024457610121565b806301ffc9a71461012657806306fdde0314610156578063081812fc14610174578063095ea7b3146101a4575b600080fd5b610140600480360381019061013b9190612b82565b6103f6565b60405161014d91906134b2565b60405180910390f35b61015e6104d8565b60405161016b9190613512565b60405180910390f35b61018e60048036038101906101899190612e43565b61056a565b60405161019b919061344b565b60405180910390f35b6101be60048036038101906101b99190612b42565b6105ef565b005b6101da60048036038101906101d59190612a2c565b610707565b005b6101f660048036038101906101f19190612a2c565b610767565b005b610212600480360381019061020d9190612e43565b610787565b60405161021f919061344b565b60405180910390f35b610242600480360381019061023d9190612d46565b610839565b005b61025e600480360381019061025991906129bf565b610cd4565b60405161026b91906138c6565b60405180910390f35b61027c610d8c565b60405161028991906138e1565b60405180910390f35b6102ac60048036038101906102a79190612e70565b610da6565b6040516102bb93929190613534565b60405180910390f35b6102cc610e6c565b6040516102d99190613512565b60405180910390f35b6102fc60048036038101906102f79190612b02565b610efe565b005b61031860048036038101906103139190612bdc565b610f14565b60405161032591906138e1565b60405180910390f35b61034860048036038101906103439190612a7f565b610f60565b005b610364600480360381019061035f9190612e43565b610fc2565b6040516103719190613512565b60405180910390f35b610394600480360381019061038f9190612ca7565b611114565b005b6103b060048036038101906103ab9190612c38565b6112a8565b6040516103bd9190613512565b60405180910390f35b6103e060048036038101906103db91906129ec565b611378565b6040516103ed91906134b2565b60405180910390f35b60007f80ac58cd000000000000000000000000000000000000000000000000000000007bffffffffffffffffffffffffffffffffffffffffffffffffffffffff1916827bffffffffffffffffffffffffffffffffffffffffffffffffffffffff191614806104c157507f5b5e139f000000000000000000000000000000000000000000000000000000007bffffffffffffffffffffffffffffffffffffffffffffffffffffffff1916827bffffffffffffffffffffffffffffffffffffffffffffffffffffffff1916145b806104d157506104d08261140c565b5b9050919050565b6060600080546104e790613bcf565b80601f016020809104026020016040519081016040528092919081815260200182805461051390613bcf565b80156105605780601f1061053557610100808354040283529160200191610560565b820191906000526020600020905b81548152906001019060200180831161054357829003601f168201915b5050505050905090565b600061057582611476565b6105b4576040517f08c379a00000000000000000000000000000000000000000000000000000000081526004016105ab90613806565b60405180910390fd5b6004600083815260200190815260200160002060009054906101000a900473ffffffffffffffffffffffffffffffffffffffff169050919050565b60006105fa82610787565b90508073ffffffffffffffffffffffffffffffffffffffff168373ffffffffffffffffffffffffffffffffffffffff16141561066b576040517f08c379a000000000000000000000000000000000000000000000000000000000815260040161066290613866565b60405180910390fd5b8073ffffffffffffffffffffffffffffffffffffffff1661068a6114e2565b73ffffffffffffffffffffffffffffffffffffffff1614806106b957506106b8816106b36114e2565b611378565b5b6106f8576040517f08c379a00000000000000000000000000000000000000000000000000000000081526004016106ef90613726565b60405180910390fd5b61070283836114ea565b505050565b6107186107126114e2565b826115a3565b610757576040517f08c379a000000000000000000000000000000000000000000000000000000000815260040161074e90613886565b60405180910390fd5b610762838383611681565b505050565b61078283838360405180602001604052806000815250610f60565b505050565b6000806002600084815260200190815260200160002060009054906101000a900473ffffffffffffffffffffffffffffffffffffffff169050600073ffffffffffffffffffffffffffffffffffffffff168173ffffffffffffffffffffffffffffffffffffffff161415610830576040517f08c379a000000000000000000000000000000000000000000000000000000000815260040161082790613766565b60405180910390fd5b80915050919050565b600060098760405161084b91906133be565b908152602001604051809103902060008767ffffffffffffffff1667ffffffffffffffff16815260200190815260200160002060009054906101000a900467ffffffffffffffff1667ffffffffffffffff16146108dd576040517f08c379a00000000000000000000000000000000000000000000000000000000081526004016108d490613686565b60405180910390fd5b6040516020016108ec90613436565b6040516020818303038152906040528051906020012060088760405161091291906133be565b908152602001604051809103902060008767ffffffffffffffff1667ffffffffffffffff168152602001908152602001600020600086815260200190815260200160002060405160200161096691906133f9565b60405160208183030381529060405280519060200120146109bc576040517f08c379a00000000000000000000000000000000000000000000000000000000081526004016109b3906136c6565b60405180910390fd5b60006109f587878733886040516020016109da959493929190613572565b604051602081830303815290604052805190602001206118dd565b905060005b82518167ffffffffffffffff161015610ae857610a44838267ffffffffffffffff1681518110610a2d57610a2c613da3565b5b60200260200101518361190d90919063ffffffff16565b73ffffffffffffffffffffffffffffffffffffffff16848267ffffffffffffffff1681518110610a7757610a76613da3565b5b602002602001015173ffffffffffffffffffffffffffffffffffffffff1614610ad5576040517f08c379a0000000000000000000000000000000000000000000000000000000008152600401610acc906138a6565b60405180910390fd5b8080610ae090613c7b565b9150506109fa565b50600760009054906101000a900467ffffffffffffffff16600988604051610b1091906133be565b908152602001604051809103902060008867ffffffffffffffff1667ffffffffffffffff16815260200190815260200160002060006101000a81548167ffffffffffffffff021916908367ffffffffffffffff160217905550600060405180606001604052808981526020018867ffffffffffffffff16815260200187815250905080600a6000600760009054906101000a900467ffffffffffffffff1667ffffffffffffffff1667ffffffffffffffff1681526020019081526020016000206000820151816000019080519060200190610bec929190612624565b5060208201518160010160006101000a81548167ffffffffffffffff021916908367ffffffffffffffff16021790555060408201518160020155905050610c5333600760009054906101000a900467ffffffffffffffff1667ffffffffffffffff16611934565b610c7d600760009054906101000a900467ffffffffffffffff1667ffffffffffffffff1686611b02565b6007600081819054906101000a900467ffffffffffffffff1680929190610ca390613c7b565b91906101000a81548167ffffffffffffffff021916908367ffffffffffffffff160217905550505050505050505050565b60008073ffffffffffffffffffffffffffffffffffffffff168273ffffffffffffffffffffffffffffffffffffffff161415610d45576040517f08c379a0000000000000000000000000000000000000000000000000000000008152600401610d3c90613746565b60405180910390fd5b600360008373ffffffffffffffffffffffffffffffffffffffff1673ffffffffffffffffffffffffffffffffffffffff168152602001908152602001600020549050919050565b600760009054906101000a900467ffffffffffffffff1681565b600a602052806000526040600020600091509050806000018054610dc990613bcf565b80601f0160208091040260200160405190810160405280929190818152602001828054610df590613bcf565b8015610e425780601f10610e1757610100808354040283529160200191610e42565b820191906000526020600020905b815481529060010190602001808311610e2557829003601f168201915b5050505050908060010160009054906101000a900467ffffffffffffffff16908060020154905083565b606060018054610e7b90613bcf565b80601f0160208091040260200160405190810160405280929190818152602001828054610ea790613bcf565b8015610ef45780601f10610ec957610100808354040283529160200191610ef4565b820191906000526020600020905b815481529060010190602001808311610ed757829003601f168201915b5050505050905090565b610f10610f096114e2565b8383611b76565b5050565b6009828051602081018201805184825260208301602085012081835280955050505050506020528060005260406000206000915091509054906101000a900467ffffffffffffffff1681565b610f71610f6b6114e2565b836115a3565b610fb0576040517f08c379a0000000000000000000000000000000000000000000000000000000008152600401610fa790613886565b60405180910390fd5b610fbc84848484611ce3565b50505050565b6060610fcd82611476565b61100c576040517f08c379a0000000000000000000000000000000000000000000000000000000008152600401611003906137e6565b60405180910390fd5b600060066000848152602001908152602001600020805461102c90613bcf565b80601f016020809104026020016040519081016040528092919081815260200182805461105890613bcf565b80156110a55780601f1061107a576101008083540402835291602001916110a5565b820191906000526020600020905b81548152906001019060200180831161108857829003601f168201915b5050505050905060006110b6611d3f565b90506000815114156110cc57819250505061110f565b6000825111156111015780826040516020016110e99291906133d5565b6040516020818303038152906040529250505061110f565b61110a84611d56565b925050505b919050565b600060098560405161112691906133be565b908152602001604051809103902060008567ffffffffffffffff1667ffffffffffffffff16815260200190815260200160002060009054906101000a900467ffffffffffffffff1690506111838167ffffffffffffffff16610787565b73ffffffffffffffffffffffffffffffffffffffff163373ffffffffffffffffffffffffffffffffffffffff16146111ba57600080fd5b816008866040516111cb91906133be565b908152602001604051809103902060008667ffffffffffffffff1667ffffffffffffffff16815260200190815260200160002060008581526020019081526020016000209080519060200190611222929190612624565b50600060098660405161123591906133be565b908152602001604051809103902060008667ffffffffffffffff1667ffffffffffffffff16815260200190815260200160002060006101000a81548167ffffffffffffffff021916908367ffffffffffffffff1602179055506112a18167ffffffffffffffff16611dfd565b5050505050565b600883805160208101820180518482526020830160208501208183528095505050505050602052816000526040600020602052806000526040600020600092509250505080546112f790613bcf565b80601f016020809104026020016040519081016040528092919081815260200182805461132390613bcf565b80156113705780601f1061134557610100808354040283529160200191611370565b820191906000526020600020905b81548152906001019060200180831161135357829003601f168201915b505050505081565b6000600560008473ffffffffffffffffffffffffffffffffffffffff1673ffffffffffffffffffffffffffffffffffffffff16815260200190815260200160002060008373ffffffffffffffffffffffffffffffffffffffff1673ffffffffffffffffffffffffffffffffffffffff16815260200190815260200160002060009054906101000a900460ff16905092915050565b60007f01ffc9a7000000000000000000000000000000000000000000000000000000007bffffffffffffffffffffffffffffffffffffffffffffffffffffffff1916827bffffffffffffffffffffffffffffffffffffffffffffffffffffffff1916149050919050565b60008073ffffffffffffffffffffffffffffffffffffffff166002600084815260200190815260200160002060009054906101000a900473ffffffffffffffffffffffffffffffffffffffff1673ffffffffffffffffffffffffffffffffffffffff1614159050919050565b600033905090565b816004600083815260200190815260200160002060006101000a81548173ffffffffffffffffffffffffffffffffffffffff021916908373ffffffffffffffffffffffffffffffffffffffff160217905550808273ffffffffffffffffffffffffffffffffffffffff1661155d83610787565b73ffffffffffffffffffffffffffffffffffffffff167f8c5be1e5ebec7d5bd14f71427d1e84f3dd0314c0f7b2291e5b200ac8c7c3b92560405160405180910390a45050565b60006115ae82611476565b6115ed576040517f08c379a00000000000000000000000000000000000000000000000000000000081526004016115e490613706565b60405180910390fd5b60006115f883610787565b90508073ffffffffffffffffffffffffffffffffffffffff168473ffffffffffffffffffffffffffffffffffffffff16148061166757508373ffffffffffffffffffffffffffffffffffffffff1661164f8461056a565b73ffffffffffffffffffffffffffffffffffffffff16145b8061167857506116778185611378565b5b91505092915050565b8273ffffffffffffffffffffffffffffffffffffffff166116a182610787565b73ffffffffffffffffffffffffffffffffffffffff16146116f7576040517f08c379a00000000000000000000000000000000000000000000000000000000081526004016116ee90613826565b60405180910390fd5b600073ffffffffffffffffffffffffffffffffffffffff168273ffffffffffffffffffffffffffffffffffffffff161415611767576040517f08c379a000000000000000000000000000000000000000000000000000000000815260040161175e90613666565b60405180910390fd5b611772838383611e50565b61177d6000826114ea565b6001600360008573ffffffffffffffffffffffffffffffffffffffff1673ffffffffffffffffffffffffffffffffffffffff16815260200190815260200160002060008282546117cd9190613aba565b925050819055506001600360008473ffffffffffffffffffffffffffffffffffffffff1673ffffffffffffffffffffffffffffffffffffffff16815260200190815260200160002060008282546118249190613a33565b92505081905550816002600083815260200190815260200160002060006101000a81548173ffffffffffffffffffffffffffffffffffffffff021916908373ffffffffffffffffffffffffffffffffffffffff160217905550808273ffffffffffffffffffffffffffffffffffffffff168473ffffffffffffffffffffffffffffffffffffffff167fddf252ad1be2c89b69c2b068fc378daa952ba7f163c4a11628f55a4df523b3ef60405160405180910390a4505050565b6000816040516020016118f09190613410565b604051602081830303815290604052805190602001209050919050565b600080600061191c8585611e55565b9150915061192981611ed8565b819250505092915050565b600073ffffffffffffffffffffffffffffffffffffffff168273ffffffffffffffffffffffffffffffffffffffff1614156119a4576040517f08c379a000000000000000000000000000000000000000000000000000000000815260040161199b906137c6565b60405180910390fd5b6119ad81611476565b156119ed576040517f08c379a00000000000000000000000000000000000000000000000000000000081526004016119e490613646565b60405180910390fd5b6119f960008383611e50565b6001600360008473ffffffffffffffffffffffffffffffffffffffff1673ffffffffffffffffffffffffffffffffffffffff1681526020019081526020016000206000828254611a499190613a33565b92505081905550816002600083815260200190815260200160002060006101000a81548173ffffffffffffffffffffffffffffffffffffffff021916908373ffffffffffffffffffffffffffffffffffffffff160217905550808273ffffffffffffffffffffffffffffffffffffffff16600073ffffffffffffffffffffffffffffffffffffffff167fddf252ad1be2c89b69c2b068fc378daa952ba7f163c4a11628f55a4df523b3ef60405160405180910390a45050565b611b0b82611476565b611b4a576040517f08c379a0000000000000000000000000000000000000000000000000000000008152600401611b4190613786565b60405180910390fd5b80600660008481526020019081526020016000209080519060200190611b71929190612624565b505050565b8173ffffffffffffffffffffffffffffffffffffffff168373ffffffffffffffffffffffffffffffffffffffff161415611be5576040517f08c379a0000000000000000000000000000000000000000000000000000000008152600401611bdc906136a6565b60405180910390fd5b80600560008573ffffffffffffffffffffffffffffffffffffffff1673ffffffffffffffffffffffffffffffffffffffff16815260200190815260200160002060008473ffffffffffffffffffffffffffffffffffffffff1673ffffffffffffffffffffffffffffffffffffffff16815260200190815260200160002060006101000a81548160ff0219169083151502179055508173ffffffffffffffffffffffffffffffffffffffff168373ffffffffffffffffffffffffffffffffffffffff167f17307eab39ab6107e8899845ad3d59bd9653f200f220920489ca2b5937696c3183604051611cd691906134b2565b60405180910390a3505050565b611cee848484611681565b611cfa848484846120ad565b611d39576040517f08c379a0000000000000000000000000000000000000000000000000000000008152600401611d3090613626565b60405180910390fd5b50505050565b606060405180602001604052806000815250905090565b6060611d6182611476565b611da0576040517f08c379a0000000000000000000000000000000000000000000000000000000008152600401611d9790613846565b60405180910390fd5b6000611daa611d3f565b90506000815111611dca5760405180602001604052806000815250611df5565b80611dd484612244565b604051602001611de59291906133d5565b6040516020818303038152906040525b915050919050565b611e06816123a5565b6000600660008381526020019081526020016000208054611e2690613bcf565b905014611e4d57600660008281526020019081526020016000206000611e4c91906126aa565b5b50565b505050565b600080604183511415611e975760008060006020860151925060408601519150606086015160001a9050611e8b878285856124b6565b94509450505050611ed1565b604083511415611ec8576000806020850151915060408501519050611ebd8683836125c3565b935093505050611ed1565b60006002915091505b9250929050565b60006004811115611eec57611eeb613d45565b5b816004811115611eff57611efe613d45565b5b1415611f0a576120aa565b60016004811115611f1e57611f1d613d45565b5b816004811115611f3157611f30613d45565b5b1415611f72576040517f08c379a0000000000000000000000000000000000000000000000000000000008152600401611f69906135e6565b60405180910390fd5b60026004811115611f8657611f85613d45565b5b816004811115611f9957611f98613d45565b5b1415611fda576040517f08c379a0000000000000000000000000000000000000000000000000000000008152600401611fd190613606565b60405180910390fd5b60036004811115611fee57611fed613d45565b5b81600481111561200157612000613d45565b5b1415612042576040517f08c379a0000000000000000000000000000000000000000000000000000000008152600401612039906136e6565b60405180910390fd5b60048081111561205557612054613d45565b5b81600481111561206857612067613d45565b5b14156120a9576040517f08c379a00000000000000000000000000000000000000000000000000000000081526004016120a0906137a6565b60405180910390fd5b5b50565b60006120ce8473ffffffffffffffffffffffffffffffffffffffff16612611565b15612237578373ffffffffffffffffffffffffffffffffffffffff1663150b7a026120f76114e2565b8786866040518563ffffffff1660e01b81526004016121199493929190613466565b602060405180830381600087803b15801561213357600080fd5b505af192505050801561216457506040513d601f19601f820116820180604052508101906121619190612baf565b60015b6121e7573d8060008114612194576040519150601f19603f3d011682016040523d82523d6000602084013e612199565b606091505b506000815114156121df576040517f08c379a00000000000000000000000000000000000000000000000000000000081526004016121d690613626565b60405180910390fd5b805181602001fd5b63150b7a0260e01b7bffffffffffffffffffffffffffffffffffffffffffffffffffffffff1916817bffffffffffffffffffffffffffffffffffffffffffffffffffffffff19161491505061223c565b600190505b949350505050565b6060600082141561228c576040518060400160405280600181526020017f300000000000000000000000000000000000000000000000000000000000000081525090506123a0565b600082905060005b600082146122be5780806122a790613c32565b915050600a826122b79190613a89565b9150612294565b60008167ffffffffffffffff8111156122da576122d9613dd2565b5b6040519080825280601f01601f19166020018201604052801561230c5781602001600182028036833780820191505090505b5090505b60008514612399576001826123259190613aba565b9150600a856123349190613cb6565b60306123409190613a33565b60f81b81838151811061235657612355613da3565b5b60200101907effffffffffffffffffffffffffffffffffffffffffffffffffffffffffffff1916908160001a905350600a856123929190613a89565b9450612310565b8093505050505b919050565b60006123b082610787565b90506123be81600084611e50565b6123c96000836114ea565b6001600360008373ffffffffffffffffffffffffffffffffffffffff1673ffffffffffffffffffffffffffffffffffffffff16815260200190815260200160002060008282546124199190613aba565b925050819055506002600083815260200190815260200160002060006101000a81549073ffffffffffffffffffffffffffffffffffffffff021916905581600073ffffffffffffffffffffffffffffffffffffffff168273ffffffffffffffffffffffffffffffffffffffff167fddf252ad1be2c89b69c2b068fc378daa952ba7f163c4a11628f55a4df523b3ef60405160405180910390a45050565b6000807f7fffffffffffffffffffffffffffffff5d576e7357a4501ddfe92f46681b20a08360001c11156124f15760006003915091506125ba565b601b8560ff16141580156125095750601c8560ff1614155b1561251b5760006004915091506125ba565b60006001878787876040516000815260200160405260405161254094939291906134cd565b6020604051602081039080840390855afa158015612562573d6000803e3d6000fd5b505050602060405103519050600073ffffffffffffffffffffffffffffffffffffffff168173ffffffffffffffffffffffffffffffffffffffff1614156125b1576000600192509250506125ba565b80600092509250505b94509492505050565b6000806000807f7fffffffffffffffffffffffffffffffffffffffffffffffffffffffffffffff85169150601b8560ff1c019050612603878288856124b6565b935093505050935093915050565b600080823b905060008111915050919050565b82805461263090613bcf565b90600052602060002090601f0160209004810192826126525760008555612699565b82601f1061266b57805160ff1916838001178555612699565b82800160010185558215612699579182015b8281111561269857825182559160200191906001019061267d565b5b5090506126a691906126ea565b5090565b5080546126b690613bcf565b6000825580601f106126c857506126e7565b601f0160209004906000526020600020908101906126e691906126ea565b5b50565b5b808211156127035760008160009055506001016126eb565b5090565b600061271a61271584613921565b6138fc565b9050808382526020820190508285602086028201111561273d5761273c613e06565b5b60005b8581101561276d57816127538882612889565b845260208401935060208301925050600181019050612740565b5050509392505050565b600061278a6127858461394d565b6138fc565b905080838252602082019050828560208602820111156127ad576127ac613e06565b5b60005b858110156127fb57813567ffffffffffffffff8111156127d3576127d2613e01565b5b8086016127e08982612939565b855260208501945060208401935050506001810190506127b0565b5050509392505050565b600061281861281384613979565b6138fc565b90508281526020810184848401111561283457612833613e0b565b5b61283f848285613b8d565b509392505050565b600061285a612855846139aa565b6138fc565b90508281526020810184848401111561287657612875613e0b565b5b612881848285613b8d565b509392505050565b6000813590506128988161448f565b92915050565b600082601f8301126128b3576128b2613e01565b5b81356128c3848260208601612707565b91505092915050565b600082601f8301126128e1576128e0613e01565b5b81356128f1848260208601612777565b91505092915050565b600081359050612909816144a6565b92915050565b60008135905061291e816144bd565b92915050565b600081519050612933816144bd565b92915050565b600082601f83011261294e5761294d613e01565b5b813561295e848260208601612805565b91505092915050565b600082601f83011261297c5761297b613e01565b5b813561298c848260208601612847565b91505092915050565b6000813590506129a4816144d4565b92915050565b6000813590506129b9816144eb565b92915050565b6000602082840312156129d5576129d4613e15565b5b60006129e384828501612889565b91505092915050565b60008060408385031215612a0357612a02613e15565b5b6000612a1185828601612889565b9250506020612a2285828601612889565b9150509250929050565b600080600060608486031215612a4557612a44613e15565b5b6000612a5386828701612889565b9350506020612a6486828701612889565b9250506040612a7586828701612995565b9150509250925092565b60008060008060808587031215612a9957612a98613e15565b5b6000612aa787828801612889565b9450506020612ab887828801612889565b9350506040612ac987828801612995565b925050606085013567ffffffffffffffff811115612aea57612ae9613e10565b5b612af687828801612939565b91505092959194509250565b60008060408385031215612b1957612b18613e15565b5b6000612b2785828601612889565b9250506020612b38858286016128fa565b9150509250929050565b60008060408385031215612b5957612b58613e15565b5b6000612b6785828601612889565b9250506020612b7885828601612995565b9150509250929050565b600060208284031215612b9857612b97613e15565b5b6000612ba68482850161290f565b91505092915050565b600060208284031215612bc557612bc4613e15565b5b6000612bd384828501612924565b91505092915050565b60008060408385031215612bf357612bf2613e15565b5b600083013567ffffffffffffffff811115612c1157612c10613e10565b5b612c1d85828601612967565b9250506020612c2e858286016129aa565b9150509250929050565b600080600060608486031215612c5157612c50613e15565b5b600084013567ffffffffffffffff811115612c6f57612c6e613e10565b5b612c7b86828701612967565b9350506020612c8c868287016129aa565b9250506040612c9d86828701612995565b9150509250925092565b60008060008060808587031215612cc157612cc0613e15565b5b600085013567ffffffffffffffff811115612cdf57612cde613e10565b5b612ceb87828801612967565b9450506020612cfc878288016129aa565b9350506040612d0d87828801612995565b925050606085013567ffffffffffffffff811115612d2e57612d2d613e10565b5b612d3a87828801612967565b91505092959194509250565b60008060008060008060c08789031215612d6357612d62613e15565b5b600087013567ffffffffffffffff811115612d8157612d80613e10565b5b612d8d89828a01612967565b9650506020612d9e89828a016129aa565b9550506040612daf89828a01612995565b945050606087013567ffffffffffffffff811115612dd057612dcf613e10565b5b612ddc89828a01612967565b935050608087013567ffffffffffffffff811115612dfd57612dfc613e10565b5b612e0989828a0161289e565b92505060a087013567ffffffffffffffff811115612e2a57612e29613e10565b5b612e3689828a016128cc565b9150509295509295509295565b600060208284031215612e5957612e58613e15565b5b6000612e6784828501612995565b91505092915050565b600060208284031215612e8657612e85613e15565b5b6000612e94848285016129aa565b91505092915050565b612ea681613aee565b82525050565b612eb581613b00565b82525050565b612ec481613b0c565b82525050565b612edb612ed682613b0c565b613cac565b82525050565b6000612eec826139f0565b612ef68185613a06565b9350612f06818560208601613b9c565b612f0f81613e1a565b840191505092915050565b6000612f25826139fb565b612f2f8185613a17565b9350612f3f818560208601613b9c565b612f4881613e1a565b840191505092915050565b6000612f5e826139fb565b612f688185613a28565b9350612f78818560208601613b9c565b80840191505092915050565b60008154612f9181613bcf565b612f9b8186613a28565b94506001821660008114612fb65760018114612fc757612ffa565b60ff19831686528186019350612ffa565b612fd0856139db565b60005b83811015612ff257815481890152600182019150602081019050612fd3565b838801955050505b50505092915050565b6000613010601883613a17565b915061301b82613e2b565b602082019050919050565b6000613033601f83613a17565b915061303e82613e54565b602082019050919050565b6000613056601c83613a28565b915061306182613e7d565b601c82019050919050565b6000613079603283613a17565b915061308482613ea6565b604082019050919050565b600061309c601c83613a17565b91506130a782613ef5565b602082019050919050565b60006130bf602483613a17565b91506130ca82613f1e565b604082019050919050565b60006130e2601583613a17565b91506130ed82613f6d565b602082019050919050565b6000613105601983613a17565b915061311082613f96565b602082019050919050565b6000613128602a83613a17565b915061313382613fbf565b604082019050919050565b600061314b602283613a17565b91506131568261400e565b604082019050919050565b600061316e602c83613a17565b91506131798261405d565b604082019050919050565b6000613191603883613a17565b915061319c826140ac565b604082019050919050565b60006131b4602a83613a17565b91506131bf826140fb565b604082019050919050565b60006131d7602983613a17565b91506131e28261414a565b604082019050919050565b60006131fa602e83613a17565b915061320582614199565b604082019050919050565b600061321d602283613a17565b9150613228826141e8565b604082019050919050565b6000613240602083613a17565b915061324b82614237565b602082019050919050565b6000613263603183613a17565b915061326e82614260565b604082019050919050565b6000613286602c83613a17565b9150613291826142af565b604082019050919050565b60006132a9602983613a17565b91506132b4826142fe565b604082019050919050565b60006132cc602f83613a17565b91506132d78261434d565b604082019050919050565b60006132ef600683613a17565b91506132fa8261439c565b602082019050919050565b6000613312602183613a17565b915061331d826143c5565b604082019050919050565b6000613335600083613a28565b915061334082614414565b600082019050919050565b6000613358603183613a17565b915061336382614417565b604082019050919050565b600061337b600f83613a17565b915061338682614466565b602082019050919050565b61339a81613b62565b82525050565b6133a981613b6c565b82525050565b6133b881613b80565b82525050565b60006133ca8284612f53565b915081905092915050565b60006133e18285612f53565b91506133ed8284612f53565b91508190509392505050565b60006134058284612f84565b915081905092915050565b600061341b82613049565b91506134278284612eca565b60208201915081905092915050565b600061344182613328565b9150819050919050565b60006020820190506134606000830184612e9d565b92915050565b600060808201905061347b6000830187612e9d565b6134886020830186612e9d565b6134956040830185613391565b81810360608301526134a78184612ee1565b905095945050505050565b60006020820190506134c76000830184612eac565b92915050565b60006080820190506134e26000830187612ebb565b6134ef60208301866133af565b6134fc6040830185612ebb565b6135096060830184612ebb565b95945050505050565b6000602082019050818103600083015261352c8184612f1a565b905092915050565b6000606082019050818103600083015261354e8186612f1a565b905061355d60208301856133a0565b61356a6040830184613391565b949350505050565b600060c082019050818103600083015261358c8188612f1a565b905061359b60208301876133a0565b6135a86040830186613391565b6135b56060830185612e9d565b81810360808301526135c78184612f1a565b905081810360a08301526135da816132e2565b90509695505050505050565b600060208201905081810360008301526135ff81613003565b9050919050565b6000602082019050818103600083015261361f81613026565b9050919050565b6000602082019050818103600083015261363f8161306c565b9050919050565b6000602082019050818103600083015261365f8161308f565b9050919050565b6000602082019050818103600083015261367f816130b2565b9050919050565b6000602082019050818103600083015261369f816130d5565b9050919050565b600060208201905081810360008301526136bf816130f8565b9050919050565b600060208201905081810360008301526136df8161311b565b9050919050565b600060208201905081810360008301526136ff8161313e565b9050919050565b6000602082019050818103600083015261371f81613161565b9050919050565b6000602082019050818103600083015261373f81613184565b9050919050565b6000602082019050818103600083015261375f816131a7565b9050919050565b6000602082019050818103600083015261377f816131ca565b9050919050565b6000602082019050818103600083015261379f816131ed565b9050919050565b600060208201905081810360008301526137bf81613210565b9050919050565b600060208201905081810360008301526137df81613233565b9050919050565b600060208201905081810360008301526137ff81613256565b9050919050565b6000602082019050818103600083015261381f81613279565b9050919050565b6000602082019050818103600083015261383f8161329c565b9050919050565b6000602082019050818103600083015261385f816132bf565b9050919050565b6000602082019050818103600083015261387f81613305565b9050919050565b6000602082019050818103600083015261389f8161334b565b9050919050565b600060208201905081810360008301526138bf8161336e565b9050919050565b60006020820190506138db6000830184613391565b92915050565b60006020820190506138f660008301846133a0565b92915050565b6000613906613917565b90506139128282613c01565b919050565b6000604051905090565b600067ffffffffffffffff82111561393c5761393b613dd2565b5b602082029050602081019050919050565b600067ffffffffffffffff82111561396857613967613dd2565b5b602082029050602081019050919050565b600067ffffffffffffffff82111561399457613993613dd2565b5b61399d82613e1a565b9050602081019050919050565b600067ffffffffffffffff8211156139c5576139c4613dd2565b5b6139ce82613e1a565b9050602081019050919050565b60008190508160005260206000209050919050565b600081519050919050565b600081519050919050565b600082825260208201905092915050565b600082825260208201905092915050565b600081905092915050565b6000613a3e82613b62565b9150613a4983613b62565b9250827fffffffffffffffffffffffffffffffffffffffffffffffffffffffffffffffff03821115613a7e57613a7d613ce7565b5b828201905092915050565b6000613a9482613b62565b9150613a9f83613b62565b925082613aaf57613aae613d16565b5b828204905092915050565b6000613ac582613b62565b9150613ad083613b62565b925082821015613ae357613ae2613ce7565b5b828203905092915050565b6000613af982613b42565b9050919050565b60008115159050919050565b6000819050919050565b60007fffffffff0000000000000000000000000000000000000000000000000000000082169050919050565b600073ffffffffffffffffffffffffffffffffffffffff82169050919050565b6000819050919050565b600067ffffffffffffffff82169050919050565b600060ff82169050919050565b82818337600083830152505050565b60005b83811015613bba578082015181840152602081019050613b9f565b83811115613bc9576000848401525b50505050565b60006002820490506001821680613be757607f821691505b60208210811415613bfb57613bfa613d74565b5b50919050565b613c0a82613e1a565b810181811067ffffffffffffffff82111715613c2957613c28613dd2565b5b80604052505050565b6000613c3d82613b62565b91507fffffffffffffffffffffffffffffffffffffffffffffffffffffffffffffffff821415613c7057613c6f613ce7565b5b600182019050919050565b6000613c8682613b6c565b915067ffffffffffffffff821415613ca157613ca0613ce7565b5b600182019050919050565b6000819050919050565b6000613cc182613b62565b9150613ccc83613b62565b925082613cdc57613cdb613d16565b5b828206905092915050565b7f4e487b7100000000000000000000000000000000000000000000000000000000600052601160045260246000fd5b7f4e487b7100000000000000000000000000000000000000000000000000000000600052601260045260246000fd5b7f4e487b7100000000000000000000000000000000000000000000000000000000600052602160045260246000fd5b7f4e487b7100000000000000000000000000000000000000000000000000000000600052602260045260246000fd5b7f4e487b7100000000000000000000000000000000000000000000000000000000600052603260045260246000fd5b7f4e487b7100000000000000000000000000000000000000000000000000000000600052604160045260246000fd5b600080fd5b600080fd5b600080fd5b600080fd5b600080fd5b6000601f19601f8301169050919050565b7f45434453413a20696e76616c6964207369676e61747572650000000000000000600082015250565b7f45434453413a20696e76616c6964207369676e6174757265206c656e67746800600082015250565b7f19457468657265756d205369676e6564204d6573736167653a0a333200000000600082015250565b7f4552433732313a207472616e7366657220746f206e6f6e20455243373231526560008201527f63656976657220696d706c656d656e7465720000000000000000000000000000602082015250565b7f4552433732313a20746f6b656e20616c7265616479206d696e74656400000000600082015250565b7f4552433732313a207472616e7366657220746f20746865207a65726f2061646460008201527f7265737300000000000000000000000000000000000000000000000000000000602082015250565b7f546f6b656e20616c726561647920777261707065640000000000000000000000600082015250565b7f4552433732313a20617070726f766520746f2063616c6c657200000000000000600082015250565b7f546f6b656e20616c7265616479206275726e656420776974682074686573652060008201527f7369676e61747572657300000000000000000000000000000000000000000000602082015250565b7f45434453413a20696e76616c6964207369676e6174757265202773272076616c60008201527f7565000000000000000000000000000000000000000000000000000000000000602082015250565b7f4552433732313a206f70657261746f7220717565727920666f72206e6f6e657860008201527f697374656e7420746f6b656e0000000000000000000000000000000000000000602082015250565b7f4552433732313a20617070726f76652063616c6c6572206973206e6f74206f7760008201527f6e6572206e6f7220617070726f76656420666f7220616c6c0000000000000000602082015250565b7f4552433732313a2062616c616e636520717565727920666f7220746865207a6560008201527f726f206164647265737300000000000000000000000000000000000000000000602082015250565b7f4552433732313a206f776e657220717565727920666f72206e6f6e657869737460008201527f656e7420746f6b656e0000000000000000000000000000000000000000000000602082015250565b7f45524337323155524953746f726167653a2055524920736574206f66206e6f6e60008201527f6578697374656e7420746f6b656e000000000000000000000000000000000000602082015250565b7f45434453413a20696e76616c6964207369676e6174757265202776272076616c60008201527f7565000000000000000000000000000000000000000000000000000000000000602082015250565b7f4552433732313a206d696e7420746f20746865207a65726f2061646472657373600082015250565b7f45524337323155524953746f726167653a2055524920717565727920666f722060008201527f6e6f6e6578697374656e7420746f6b656e000000000000000000000000000000602082015250565b7f4552433732313a20617070726f76656420717565727920666f72206e6f6e657860008201527f697374656e7420746f6b656e0000000000000000000000000000000000000000602082015250565b7f4552433732313a207472616e73666572206f6620746f6b656e2074686174206960008201527f73206e6f74206f776e0000000000000000000000000000000000000000000000602082015250565b7f4552433732314d657461646174613a2055524920717565727920666f72206e6f60008201527f6e6578697374656e7420746f6b656e0000000000000000000000000000000000602082015250565b7f6c6f636b65640000000000000000000000000000000000000000000000000000600082015250565b7f4552433732313a20617070726f76616c20746f2063757272656e74206f776e6560008201527f7200000000000000000000000000000000000000000000000000000000000000602082015250565b50565b7f4552433732313a207472616e736665722063616c6c6572206973206e6f74206f60008201527f776e6572206e6f7220617070726f766564000000000000000000000000000000602082015250565b7f77726f6e67207369676e61747572650000000000000000000000000000000000600082015250565b61449881613aee565b81146144a357600080fd5b50565b6144af81613b00565b81146144ba57600080fd5b50565b6144c681613b16565b81146144d157600080fd5b50565b6144dd81613b62565b81146144e857600080fd5b50565b6144f481613b6c565b81146144ff57600080fd5b5056fea2646970667358221220ee9fbf4dcb42f4c44a5967394baec6bcdadcbbaa3203f57f4705447a2848bb8464736f6c63430008070033",
    "linkReferences": {},
    "deployedLinkReferences": {}
}